:020000040003F7
:10C00000083C0020F9C3030013C4030015C4030057
:10C010000000000000000000000000000000000020
:10C02000000000000000000000000000D5C0030078
:10C03000000000000000000019C403001BC403003E
:10C040001DC403001DC403001DC403001DC4030060
:10C050001DC40300000000001DC403001DC4030034
:10C060001DC403001DC403001DC403001DC4030040
:10C070001DC403001DC403001DC403001DC4030030
:10C080001DC403003DD703001DC403001DC40300ED
:10C0900059D703001DC4030055F003001DC403005D
:10C0A0001DC403001DC403000000000000000000C8
:10C0B0000000000000000000000000000000000080
:10C0C0000348854603F040F80048004795C2030046
:10C0D000083C00200648704502D1EFF3098101E0D9
:10C0E000EFF30881886902380078024A104700009F
:10C0F000FDFFFFFF6DC10300401E00BF00BF00BF7A
:10C1000000BF00BF00BF00BF00BF00BF00BF00BF37
:10C1100000BFF1D170470000401E00BF00BF00BF4C
:10C1200000BF00BF00BF00BF00BF00BF00BF00BF17
:10C1300000BFF1D170470000056885F308884068AA
:10C14000FF2464B2EFF30585002D01D1A646004718
:10C150002546064621273FBAF0B4002400250026D4
:10C160000027F0B4F92040B20047000010B50C469B
:10C17000002802D00120086010BD2168002911D0DC
:10C180001E48421A814212D03C2A0DD23C303C312A
:10C1900001220B7803701346491E401E521C3C2B93
:10C1A000F7D904E00E200BE03C2202F091FF0022C0
:10C1B0003C21124801F082FE1049891E08800020AF
:10C1C000206010BD70B505000BD000223C210B484B
:10C1D00001F074FE094CA41E2188884203D00B2074
:10C1E00070BD0E2070BD3C220449284602F070FF4D
:10C1F0002088401C2080002070BD0000823F00206D
:10C200000A4610B50146704801F0D4F810BD10B5CB
:10C2100001F020F810BD10B56C4C86B01ECC039414
:10C220006C460EC4002807D0684618DF002803D0EB
:10C230000022114601F0BEF80F20800313DF002812
:10C2400003D00022114601F0B5F8614B4822614944
:10C25000082002F0DBFE002803D00022114601F086
:10C26000A9F800200490059001206946087404A8EC
:10C2700060DF002803D00022114601F09BF85648E9
:10C2800002F0E0FE002803D00022114601F092F8EF
:10C2900006B010BD1CB55148C1690025B12945D073
:10C2A0000026152418270122204600950023114658
:10C2B000019500F06AF8641CBC42F4D90F20484C88
:10C2C0004005A060474B484A0521002001F048FA8C
:10C2D000002803D00022114601F06CF8032300224D
:10C2E000142011460095019300F04FF801F02EFD47
:10C2F00001F072FD0125ED0500281AD0E56001F07E
:10C300007AFD002803D00022114601F053F80120E5
:10C31000FFF781FF00F049F801F093FD002803D0FA
:10C320000022114601F046F8A56007E00126C5612C
:10C33000B7E70120FFF76FFF00F037F803273F034F
:10C34000002E04D1B86801F058FC002809D1E5603E
:10C3500001F00EFD002803D00022114601F02AF85A
:10C36000A560B86801F049FC002806D001F034FD52
:10C37000002802D1B86801F007FDBFF34F8F1C49B8
:10C380001A48C860BFF34F8FFEE730B552000A432A
:10C390009900039C0A432102049D0A4329040A438D
:10C3A000144980004018026030BD0A4A10B5483276
:10C3B0001421082001F00AF8002803D000221146B9
:10C3C00000F0F8FF10BD0000EFBEADDEA4F10300E9
:10C3D00093F003009C2E00200FC2030000050040D4
:10C3E000000500509FDB0300D42C00200400FA0558
:10C3F00000ED00E0000700500321094802680A43ED
:10C400000260084802680A430260074880470748FC
:10C410000047FEE7FEE7FEE7FEE7FEE7FEE7000077
:10C42000240500405405004031C40300C1C003008E
:10C4300010B500F01DF8002805D01F491D484860C0
:10C44000C8131E4988611E48018CC9B201290ED14A
:10C45000818C09070BD1018D0906090F042906D12A
:10C46000808D0006000F02D116490120886010BDA2
:10C470001348018CC9B2012917D1818C090714D145
:10C48000018D09060A0F03D1828D1206120F0ED0FC
:10C49000090F012903D1828D1206120F07D003293B
:10C4A00003D1808D0006000F01D0002070470120CD
:10C4B00070470000DFFF07C000050040006C00402F
:10C4C000C00F00F000060040FFB583B00746002013
:10C4D0000C9C8646268805463AE07868A9004218F2
:10C4E0001188684681805188C1800022694601A870
:10C4F00065DF002839D1684601780598814226D148
:10C500007046002801D0002200E00222208889180D
:10C5100042180D998A4227D8714600290AD1401C39
:10C5200080B22080069A049911542088401C2080F3
:10C5300001208646218806980A18694601A865DF09
:10C54000002812D1694620880978401820806D1C87
:10C550003888A842C1DC704600280AD02088801B99
:10C56000401E80B2FF2802D90C2007B0F0BD06990A
:10C5700088550020F9E7FFB583B016460C9D0D9C49
:10C580001F460222009501940398FFF79DFF0028A3
:10C59000EBD13B4610223146009501940398FFF7FA
:10C5A00093FFE2E7F7B584B00025168807461580AB
:10C5B000406B1446002813D003780598032E51D3FE
:10C5C0000221017021881122491C89B22180425424
:10C5D0002188491C89B2218043542088401C208036
:10C5E000386B00281DD00546208805990246123276
:10C5F000B24237D811220A5420881022401C80B23F
:10C6000020800A542088401C20800F202A5C238828
:10C61000401ECA54228840B2521C22800028F5DAFB
:10C620000025384620300290807B002806D0334613
:10C630002246059900F0F9F8050096D10298407B52
:10C64000002806D032462146059800F018F905006A
:10C650008BD1B878002822D0059886462088001D06
:10C66000B04201D90C2080E7684679DF0028FAD172
:10C67000218803207246505420881921401C80B222
:10C680002080115420887146401C80B220804118BF
:10C690006846008800F0C4F8218840182080F878A7
:10C6A000002817D0218803230A46FB56C91C059889
:10C6B000B142D7D80221815421880122491C89B274
:10C6C000218042542188491C89B22180435420880A
:10C6D000401C20807868002817D021880023C3568A
:10C6E0000A46C91C0598B142BCD802218154218850
:10C6F0000A22491C89B2218042542188491C89B2EE
:10C70000218043542088401C2080388900280AD08A
:10C71000009438460196062202210830059BFFF757
:10C720002AFF05009FD1388A00280AD00094384695
:10C730000196072203211030059BFFF71CFF05001F
:10C7400091D1388B00280AD00094384601961522E2
:10C7500014211830059BFFF70EFF050087D1386ABA
:10C76000002806D033462246059900F006F9050058
:10C77000D8D1786A002806D033462246059900F0C1
:10C780003DF90500CED10298007B002807D0334642
:10C7900022463846059900F065F90500C2D138787F
:10C7A000002807D0334622463846059900F096F80F
:10C7B0000500B7D12846D8E6F0B50C4693B01F2146
:10C7C0006A461180072600279180002809D0C17889
:10C7D00049070DD502A9FFF7E5FE002809D102ADF2
:10C7E00001E000251780002C0ED0E078002802D050
:10C7F000304613B0F0BD01AA0AA92046FFF7D2FEC9
:10C800000028F6D10AAA02E068460022878068461E
:10C810008088C3B268460088C1B2284672DFE8E764
:10C820000870000A48700220704730B51588EC1C6B
:10C830009C4201D90C2030BD02244C5513881C2584
:10C840005B1C9BB21380CD5413885B1C9BB213807E
:10C85000012807D0022807D0032807D0042807D0D2
:10C86000072030BD002004E0012002E0CC5401E0AC
:10C870000320C8541088401C1080002030BD7CB5B7
:10C88000054608880C460930904201D90C207CBD31
:10C89000684671DF0028FAD1218808206854208872
:10C8A0001B21401C80B220802954208800A9401CF4
:10C8B00080B2208040190622013102F009FC208854
:10C8C0006946801D80B220800978002900D00121AE
:10C8D00029542088401C208000207CBDF8B50F46DC
:10C8E000017814460546012902D16878002806D04F
:10C8F0002088821C9A422DD8012902D006E0072008
:10C90000F8BD69784118891C994223D8181A801EED
:10C9100086B2684606802188B81C081869467DDF03
:10C920000028EDD12878022805D169460988B1424E
:10C9300001D809210AE00821012805D16878B04210
:10C9400002D86A46108001E0684606806846008882
:10C95000FE2801D90C20F8BD2288401CB85420883C
:10C96000401C80B22080395420886946401C2080B9
:10C970000988401820800020F8BDF8B506461088C8
:10C9800014468446801D0D46984201D90C20F8BDFE
:10C9900032880720062AFAD31927FF01554BBA42DD
:10C9A00001D99A42F3D171880629F0D3B94201D94D
:10C9B0009942ECD19A4203D0994201D08A42E6D8FA
:10C9C00005216046295420881221401C80B2208015
:10C9D00029542088401C80B2208041193088FFF7FC
:10C9E0001FFF2188401880B2208041197088FFF70E
:10C9F00017FF2188401820800020F8BD70B514462C
:10CA0000828805460E46921C2088911C4118994246
:10CA100001D8FE2A01D90C2070BD521C3254208846
:10CA2000FF21401C80B2208031542088401C80B2FD
:10CA3000208081192888FFF7F3FE2188401880B2F2
:10CA40002080AA88002A09D0A968002908D0801966
:10CA500002F03EFB2088A98840182080002070BD8D
:10CA6000072070BDFFB50746806A81B014460028D4
:10CA70003DD0002538462030009033E00C20B96AC4
:10CA800068430E18B088801CFE2802D90C2005B01F
:10CA9000F0BD22880299401C885420881622401C30
:10CAA00080B2208002990A542088401C80B22080E5
:10CAB000029941183088FFF7B3FE2188401880B2F0
:10CAC0002080B288002A0AD0B16800290FD0029BCA
:10CAD000C01802F0FDFA2088B188401820806D1C33
:10CAE0000098EDB2007BA842C8D80020CFE707200D
:10CAF000CDE70000FFFF000038B56749674A488866
:10CB000090420FD04A78664C521CD2B24A70237BB6
:10CB1000934208D3091D75DF002803D0A1690029BD
:10CB200000D0884738BD00254D70217C002907D0F2
:10CB30003B2176DF002803D0A169002900D0884777
:10CB400061690029EED068460570884738BD70B528
:10CB5000054601461C22524802F0BAFA4E4C002605
:10CB600026702968002906D00822201D02F0B0FA9C
:10CB7000201D7ADF02E04848001D7BDF002807D136
:10CB8000401E60806670474A0021474800F028FE3A
:10CB900070BD10B54448006800F094FE10BDF8B5B3
:10CBA0003D480C3000F06BF800263B4D3C4C002813
:10CBB00007D0616900291CD001206A4610706846C0
:10CBC00016E02878002805D06169002911D0684650
:10CBD00006700DE0687800280DD0A1683248002268
:10CBE000006800F036FE002803D0A169002900D0BB
:10CBF00088472E70F8BD6168F0E7F8B5284C0288C8
:10CC00000027254DE689102A17D02749112A21D05F
:10CC1000122A2DD0502A0FD1801D0288B2420BD18A
:10CC2000028B022A08D1C27E837E10021843C007FD
:10CC3000C00F13D0FFF7B3FFF8BD818869800146AC
:10CC40001548082216310C3002F042FA6F70002E9F
:10CC5000F0D0F8BD0020C04368806F70086800F015
:10CC600031FE0028F5D0A1690029F2D08847F8BD2F
:10CC7000811D094808220C3002F02AFADAE74188BF
:10CC80000548001D0288914204D34088814201D8A2
:10CC90000120704700207047042C0020FFFF000097
:10CCA00054300020F9CA0300B4F1030030B585B058
:10CCB000002822D00388FE4CA34220D0FD4B1B78D5
:10CCC000002B1CD0FB4B10255B1C1D7059700024E1
:10CCD00001259A70032269460A8200940194029405
:10CCE0000394028A0A808D708C8004A902910393B8
:10CCF00000886946A6DF05B030BD0E20FBE708209E
:10CD0000F9E7F0B58BB004460227684607730026A2
:10CD100009968784C68408A80A900D46A18A2088AF
:10CD200009AAA5DF002804D0E16A00291AD08847A3
:10CD300018E06846008CC007C00F13D06846068212
:10CD4000208803A9A8DF002813D1A97E28461B301C
:10CD500001220B0002F00AFA09460F1C2227292C97
:10CD6000442E4600FF20FE3069460882208803A931
:10CD7000A8DF0BB0F0BD6B461E700BE006221EE074
:10CD800069460A72019027E0204690470020F0E7AC
:10CD90006B461A702B8B022BF2D2EFE768460770B6
:10CDA0006946A26AF0E7032000E00420694612E029
:10CDB0000520FBE7298B032905D203220821204601
:10CDC000FFF774FFD5E741780278080210436946FF
:10CDD000888003D006200870A26AD5E70720FAE70A
:10CDE0000920E3E70322EAE730B585B00D460400E9
:10CDF00038D0002D36D06868002833D00020C043DA
:10CE0000AD4B20800FCB049301AB07C3AB48694601
:10CE10000880891C01A863DF002822D1221D6946F1
:10CE20000120A0DF00281CD168468078A071204630
:10CE300000F0CEF8002814D1204600F055F9002863
:10CE40000FD12946204600F002F9002809D1686870
:10CE5000A062A868002800D0E0629649012008700E
:10CE6000002048E70E2046E73EB5002828D00029DC
:10CE700026D0826A002A23D00A88102A21D0112ABB
:10CE800030D0502A1FD0512A1AD10A460446891D93
:10CE90000878022814D14888238A984210D1907AC1
:10CEA00004280DD006280BD0052809D0891C20465F
:10CEB000FFF727FF002803D0E16A002900D0884748
:10CEC0003EBD898810E0CB8802899342F8D10822C0
:10CED0006B461A708A7F1A7220310191826A694604
:10CEE00090473EBD0021C94301803EBDF0B585B0ED
:10CEF0000A4605002DD028886D4988422BD06D4800
:10CF00000078002827D06B4C1020641C207007206C
:10CF100060700127A7700321684601820026E11C8A
:10CF2000104600F04CF801466846008A0918684629
:10CF300001820096019602960396298A01808770E5
:10CF4000868004A80394029028886946A6DF05B06D
:10CF5000F0BD0E20FBE70820F9E7F0B585B00A46E2
:10CF6000050028D028885249884226D051480078A8
:10CF7000002822D04F4C1120641C207001276846E5
:10CF800007820026611C104600F019F80146684629
:10CF9000008A091868460182009601960296039657
:10CFA000298A01808770868004A8039402902888CB
:10CFB0006946A6DFCBE70E20C9E70820C7E708705F
:10CFC000020A4A70020C8A70000EC8700420704772
:10CFD00030B58FB005461C21684602F092F86946CC
:10CFE00008780421084369460870002401940394DA
:10CFF000049405940694A87908A988702F48694676
:10D00000801C0884601C00070794000F0C77103008
:10D0100048778A7FF9200240921CE72002400120D5
:10D0200002438A77142109A802F06BF808A8099036
:10D0300007A80A9069468C851420CC8508860D9433
:10D040002B46A888083309AAA2DF0FB030BDF0B57F
:10D050008FB00F4605461C21684602F052F868461C
:10D060000178022631430170002401940394049452
:10D0700005940694A97908A8817010496846091D8D
:10D080000184601C0107090F10316846079401777D
:10D090000020014668464177817FF9200140891CC4
:10D0A000E72001400120014368468177142107E011
:10D0B000FFFF0000182C0020B8F10300301500001D
:10D0C00009A802F01EF808A8099007A80A90684667
:10D0D0008685C48506860D972B46A888203309AA25
:10D0E0006946A2DF0FB0F0BD30B58FB005461C21F8
:10D0F000684602F006F869460878082108431022BD
:10D100001043694608700024019403940494059424
:10D110000694A87908A98870144869460884601C98
:10D1200000070794000F0C7710304877887FF921AB
:10D130000840801CF721084010430121084369463C
:10D140008877142109A801F0DCFF08A8099007A836
:10D150000A9069468C851720CC8508860D942B464D
:10D16000A888103309AAA2DF6FE70000311500007C
:10D1700031B5054C04E0401E00902046FEF7BCFF90
:10D1800000980028F7D138BDE7030000182250436B
:10D19000864A00218018017181604161022281610B
:10D1A0000261C160704770B5804C182221780F2051
:10D1B00051430A19121D7E49167813694D68012ED4
:10D1C0000FD0032E0CD101200007006981B2184650
:10D1D00001F068FF401928DF002801D10121A1706A
:10D1E00070BDA802556851692D1A0918926818185F
:10D1F000101801229202954202D2AA0829DFEBE719
:10D20000FF22013229DFE7E7F8B5684C069E657812
:10D210000A2D1DD027787D19EDB20A2D01D30A3DC4
:10D22000EDB218277D432D192871AA6103C9EE605C
:10D23000AB6069612861A1780020002904D1FFF763
:10D24000B2FF112800D100206178491C6170F8BD3F
:10D250000420F8BDF8B5554C0022A17801293FD132
:10D260000023A37006462146087818270546784310
:10D270004118022E04D0032E32D1091D0D202DE0BD
:10D280004B484668761C46608968B6028E4214D3C5
:10D2900043606078401E6070681CC0B220700A282D
:10D2A00001D30A382070182068430119091D10465F
:10D2B00000F06BF82846FFF769FF607800280FD070
:10D2C000A07800280CD1FFF76EFF002808D01128A5
:10D2D00006D02178182251430919091D00F055F88C
:10D2E000F8BD70B50024324E30487460047044704C
:10D2F000847025462846FFF749FF6D1C0A2DF9D397
:10D300002B4934600020083174608200401C8C502E
:10D310000228FAD3002070BD10B5254B1A68022AE6
:10D3200009D00A601C469100083400686050521C05
:10D3300000201A6010BD042010BDF8B507461D4638
:10D3400016460C46084600F01AF800280CD0601962
:10D3500000F015F8002807D0334622463946012050
:10D360000095FFF751FFF8BD1020F8BD08B50B463A
:10D370000022014603200092FFF746FF08BD800708
:10D3800001D0002070470120704738B50C46E26894
:10D39000074B920008339D58097862680092024654
:10D3A00020460C306369A84738BD0000703000206B
:10D3B000202C0020BFF34F8F03490248C860BFF301
:10D3C0004F8FFEE70400FA0500ED00E030B5CB001A
:10D3D00008339DB293070024002B01D0072030BDF5
:10D3E000574B9A605219DA605C701C7058809980B3
:10D3F000002030BDF7B5524C82B060880F468142A4
:10D400006ED80020694608704F494E4E4868C005E6
:10D41000C00D18D0103840B2002807DA0207120FEA
:10D42000083A920892005118C96904E08108474AF5
:10D430008900891809688007C00EC1400806850F59
:10D44000012D01D10AE00425684636DF02280CD000
:10D45000002803D000221146FFF7ACFF2278607845
:10D46000A188884203DA401C02E072B6F6E7002089
:10D47000C0B2904207D066786078884201DA401CDA
:10D4800000E000206070012D0BD062B66846007885
:10D4900037DF022805D0002803D000221146FFF70D
:10D4A00089FF2848864219D0A068F50004994151A7
:10D4B000029900290CD0002F0AD060883A464643D2
:10D4C000E068301801F004FEA0682818878002E0A8
:10D4D000002128188180002005B0F0BD0420FBE762
:10D4E0000920F9E70EB504E068468188029A0098A1
:10D4F000904702AA01A9684600F003F80028F3D07B
:10D500000EBD70B50E4B05241D785E78AE4215D069
:10D510001D781C789E88B44201DA641C00E0002467
:10D520001C705C88DE686C43A41904609B68E8008A
:10D53000C418A4880C80185800241060204670BDC0
:10D54000302C0020FFFF000000ED00E000E400E0D0
:10D550008307FF22DB0E9A408907090E99400028B5
:10D560000BDA0007000F08388308F9489B001B18E6
:10D57000D86990430843D86170478308F5489B00F9
:10D580001B181868904308431860704770B5012451
:10D59000F14960040860F14940108860EF49403962
:10D5A0008860EF4D6C602F20FEF7B6FDAC60ED4D4E
:10D5B00000242F202C61FEF7AFFDEC7070BDF8B594
:10D5C000E849C8680A690C780F79896886469446E4
:10D5D00000913EE00099E20055182A7836E01823C1
:10D5E00053436968521CC918AB78D2B2934200D138
:10D5F00000220B78022B02D0032B27D123E04E68A8
:10D600000346014603E0B14204D00B46C969002934
:10D610001CD0F8E7002919D08B4208D1C069002836
:10D6200005D1CF4F0126BE600026B44601270E6803
:10D63000C969D961002909D00B689B190B6005E005
:10D640000174C06900E000210028F9D16978914295
:10D65000C5D12146641EE4B20029BBD1C14962464E
:10D660000A61C8600F71704501D00120F8BD00202B
:10D67000F8BDF8B50446BB480026C168009107789C
:10D680004EE0B848F90080680D1843E0002C02D045
:10D690002046E4691FE02878182141436A68401C4D
:10D6A000C0B251182870AA78904200D12E700A7822
:10D6B0004868012A30D1027C002A2DD18A68426054
:10D6C000CA6882600A69C26049698161A5490979AD
:10D6D000002900D04660A34943680A699C46991A0C
:10D6E0000902A14B090A994202D28268891807E00F
:10D6F0006146511A09028268090A8A4202D9511AFE
:10D70000016000E006604660012186600174C66128
:10D7100000F0FFF8002CB9D1287869788842BAD196
:10D7200038467F1EFFB20028ABD18E48C1680098F2
:10D73000814201D00120F8BD0020F8BD10B58B4911
:10D740000020086048608860C860884940390860E7
:10D75000486000F016F910BD10B500F04FF910BD8B
:10D76000FFB59007002581B014460E46002833D13E
:10D770007C4F002C32D0FFF709FF0498786103201A
:10D7800038702246BC6018340020334618214B43C1
:10D79000C10089180D704D708E704C601C19401CB2
:10D7A0000328F5DBFD607D7001247148BD70240500
:10D7B000046003211420FFF7CBFE67488038046023
:10D7C0006C4C0198A06003211120FFF7C1FE606836
:10D7D0003861002005B0F0BD0720FBE7BD60FBE726
:10D7E000604B9B68002B07D0002A07D0002805D08B
:10D7F0000068037C002B03D0082070470720704787
:10D80000417442610020704751494868C005C00D0D
:10D8100019D0103840B2002807DA0207120F083A70
:10D82000920892005118C96904E08108494A8900A8
:10D83000891809688007C00EC1400806800F0128BA
:10D8400003D0032803D00220704700207047012036
:10D850007047FEB50D4643491746896804460029BE
:10D860002AD0002C28D0052D01D20720FEBD6069EA
:10D87000002821D0607C012820D00026FFF7C4FFBB
:10D88000C0003849019089684018694600F0F6F8F0
:10D89000002815D0012101703649446049680830DC
:10D8A000E2C030490198896841186846007848709C
:10D8B00000F062F80020FEBD0820FEBD2E46DDE728
:10D8C0000420FEBDF8B5274D0446A96800291CD0E8
:10D8D000002C1AD06069002817D000262674FFF7A4
:10D8E00093FFC700A8686946381800F0C7F80028F9
:10D8F0000DD0022101704460A8683918684600788C
:10D90000487000F039F83046F8BD0820F8BD042012
:10D91000F8BD10B5134BD968002906D002680C6811
:10D92000A24204D8A21A0A60C161D86010BD0B4699
:10D9300004E00B46C969121B002904D00C6894420C
:10D94000F7D3A41A0C600260C161D86110BD000059
:10D9500000ED00E000E400E080E100E04013014061
:10D9600000100140402C0020FFFF7F0040110140CB
:10D9700080E200E00015014001207C4900050860BC
:10D980007047F8B57A4DEC68002C36D079480027FE
:10D9900040682969401A0602360A2068B0421AD83F
:10D9A000361AC7192246107CE469002811D00020DD
:10D9B00010746B69002B09D0916950699847002851
:10D9C00007D000221146FFF7F5FC02E0516990698B
:10D9D0008847002CE1D16978A878814206D1401CA3
:10D9E000C0B2A870022801D10020A87060490006CA
:10D9F000800D18310F50FFF7BFFFF8BDFEB55C4C2E
:10DA000000252769E0680290684600F04AF8019016
:10DA1000FFF7D5FD06460198002822D00023009884
:10DA2000E16817E00E680A46864202D9301A08609B
:10DA300012E0801BF31800261660D668D169B44640
:10DA4000002E07D0FE183602360A566066469660EB
:10DA5000D56115460029E5D12846E160FFF709FEAA
:10DA600006E02846FFF705FE002801D1002E02D06F
:10DA7000029800F033F800202071FEBD42788378D0
:10DA8000521CD2B2934200D100220378934201D1BA
:10DA9000002070470A7041684078182250430818E7
:10DAA000704710B5324900234A788C78A24212D0D0
:10DAB000521CD2B24A70022A00D14B704A782C4BC9
:10DAC000920018339A580260086910180002000A80
:10DAD000086101203AE70360002037E7F8B52448E1
:10DAE000C16800293ED00E6822494C680769C07899
:10DAF000E11B0D022D0AED1C002815D101201E4A44
:10DB0000000450601C4A403A50601849400080317F
:10DB100008601A4908601A49012008602F20FEF7A2
:10DB2000FBFA13490120C870B54200D23546E81906
:10DB30000002104B000A403318600E4A5168001B67
:10DB4000091B0902090A0002C91C000A814208D9FE
:10DB5000506818602F20FEF7DFFA012003494004C7
:10DB60000860F8BDFFF712FDF8BD000000E200E01C
:10DB7000402C0020001501404013014000E100E06E
:10DB80000010014010B50446082904D000221146B7
:10DB90001046FFF70FFC21686068884710BD1CB570
:10DBA00001910090024A08216846FFF723FC1CBD42
:10DBB00085DB030010B5B8480378012B03D1012998
:10DBC00001D102210170100003D000221146FFF79D
:10DBD000F1FB10BD10B5B04C48DF002803D0002287
:10DBE0001146FFF7E7FBFFF77DFC2078022803D002
:10DBF000032801D00428EFD110BD38B50068401CBF
:10DC000019D00024684600F04FF9009801780129E6
:10DC100010D1418800290AD0816803200003806860
:10DC2000002200F04BF900994988814201D101247A
:10DC300000E00024204638BD10B5044696481C215B
:10DC4000001DFFF793FB002803D000221146FFF7C9
:10DC5000B1FB914800231C222146001DFFF76DFBFC
:10DC6000002803D000221146FFF7A4FB10BD0FB41B
:10DC7000F8B5684600F018F96846027E418B01232A
:10DC8000854CFF258548002A12D0012A16D0032A88
:10DC90002AD00021022A36D0052A46D0042A4ED0A6
:10DCA000062A01D104202070F8BC08BC04B0184733
:10DCB0004180099981600370057110E04180089AE4
:10DCC00007998918099A89188160A5210170057141
:10DCD0000799C1600899426101610A9981612370C5
:10DCE0006E48FFF7A9FFDFE700990A7802704A88BB
:10DCF000428089688160AA2101710799C1600899F1
:10DD0000016109990BE0009A1678A52E09D00670DA
:10DD100056884680926882600571C16001614161E8
:10DD2000DDE7418081600570F6E700F02DFD0028F9
:10DD300003D000221146FFF73DFB0320B3E74180EB
:10DD400081600570009909790171C9E70EB5544ADF
:10DD50006B4607CA07C3FFF7C4FA002807D14E492C
:10DD6000FF208002091D48606846FFF7D5FA0EBD06
:10DD700010B500F0BBF9002805D100F0EAFE04461A
:10DD8000FFF728FF204610BD70B511DF002803D033
:10DD900000221146FFF70EFB424900200A68414B62
:10DDA000012180330C468440144204D0C506ED0E98
:10DDB0000C46AC401C60401C2028F3D303242403F1
:10DDC000A06813DF002803D000221146FFF7F2FA03
:10DDD000A06800F06FF870BD08B5684600F064F800
:10DDE00000980178A52904D00079AA2801D0002044
:10DDF00008BD012008BD10B500F073FB002803D159
:10DE000000F04FFB00281BD06420FFF7B1F900F0B1
:10DE1000EEFA002803D000221146FFF7CBFA00F0FB
:10DE200060FB002803D000221146FFF7C3FA00F080
:10DE300018FB040003D000221146FFF7BBFA20466E
:10DE400010BD00B5164987B014220C3101A801F0AD
:10DE50003FF90598009001A80FC8FFF708FFFFF7EA
:10DE6000B9FE002007B000BD38B50446684600F092
:10DE70001BF8009801782170418861808168A16059
:10DE800001792171C168E1600169216141696161C4
:10DE90008069A06138BD0000602C00206431002042
:10DEA000C8F1030000E100E0014901607047000093
:10DEB00000FC030010B5FEF73FF910BD10B5044695
:10DEC000002A02D01088002210E00A48FBE7030A6B
:10DED00000020343A05C584003061B0F4340180395
:10DEE000584083B21806C00C5840521C8A42EED3E8
:10DEF00010BD0000FFFF000070B5FB4C1E466078AF
:10DF00001546012902D0032916D108E0052813D1AE
:10DF10006369002B10D03246294604200BE002280A
:10DF20000AD1F24840688047032060706369002B83
:10DF300002D0324629469847280003D000221146D5
:10DF4000FFF738FA70BD00B5E74987B001200870C7
:10DF50000520694608710598009001A80FC8FFF7D1
:10DF600086FE07B000BD10B5DF480078002801D05C
:10DF7000082010BDDE4C2068FFF7A4FC002803D069
:10DF800000221146FFF716FA0F21002289042068AB
:10DF9000FFF75FFC040003D000221146FFF70AFAE6
:10DFA000204610BDD04910B5CF4820310161022173
:10DFB0004170C1682030FFF7D9F9002803D0002252
:10DFC0001146FFF7F7F910BDC74910B5C64818311B
:10DFD0000161022141700320000380680F21890341
:10DFE000081A4108C0481830FFF7C0F9002803D0CC
:10DFF00000221146FFF7DEF910BD704700B5BC499D
:10E0000087B01422091D01A801F062F8059800905C
:10E0100001A80FC8FFF72BFEA3E700B587B00121C9
:10E0200068460171B04881886846C18003200003BA
:10E0300080680590AD4890384168029181680391ED
:10E04000C0680490059800900A46049B02990198C4
:10E05000FFF70DFE002084E730B5A44CA248903CA9
:10E0600087B02030E168FFF781F9002803D0002253
:10E070001146FFF79FF99C48E26818304168002379
:10E080000830FFF75AF9050012D1142101A801F058
:10E0900038F8002168460171934881886846C1803C
:10E0A000E06804900598009001A80FC8FFF7DFFD15
:10E0B000284607B030BD00B587B00321684601711E
:10E0C000894881886846C1808848903841680291B3
:10E0D00081680391C0680490059800900A46049BEB
:10E0E00002990198FFF7C3FD00203AE7FEB5804E84
:10E0F0006B46B069326AF16907C37B4C0025A57095
:10E100002146A58020316846FFF706F9002801D096
:10E110006570FEBD032074490003806820314860AB
:10E1200020390A46126A8A610F218903091A4908AF
:10E1300040186D496F4A1831486000216C48FFF75C
:10E140004FFB002803D000221146FFF733F90F21BF
:10E15000002289043068FFF77CFB002803D00022EE
:10E160001146FFF727F90120A56060700020FEBD71
:10E170005D494861704770B542685C4814685368EF
:10E1800091689038D26804604360C2608160007812
:10E19000440701D5840705D19C0703D18C0701D121
:10E1A000940701D0062070BD5B189A184E4D0F23BE
:10E1B0009B02EA60994213D84F49504B4B4CC6071B
:10E1C00009D08868181A90420AD34D4820604D48FB
:10E1D00060604D480FE08968591A4908914201D2A0
:10E1E0000C2070BD4949216049496160800701D513
:10E1F000484800E04848A0606878012802D0082616
:10E20000304670BDFFF7AFFE0600FAD12168E8681E
:10E210008847F5E770B5050004D0287A800703D059
:10E22000102070BD0E2070BD2F4C6078032803D0E5
:10E23000042801D0052801D0082070BD6868E16875
:10E240008600A0688019884204D90020C043A060DD
:10E250000C2070BDFFF787FE0028FAD1A96832466E
:10E26000A3682069FFF769F80028F2D1A16889192D
:10E27000A160E2689142ECD0092070BD10B51A4C43
:10E280000820A168002900D010BD61780429FBD1C5
:10E290001648A178803800F06BF9002802D00021E0
:10E2A000A17010BD0521617010BDF8B50E4C074678
:10E2B0006078032804D0042804D008252846F8BD37
:10E2C00004206070A068002801D00820F8BDFFF786
:10E2D0004AFE0500FAD178688600A0788119802965
:10E2E0001CD90920F8BD00006C2C00203032002021
:10E2F000E8F1030047DF03000030000000C0030026
:10E30000A5DF0300FDDF03001BE00300C9DF0300FE
:10E31000FBDF0300B7E0030059E00300914AB9684E
:10E320001018324600F0D4FEA0788019A070C5E71E
:10E3300010B58D4C6078052813D1E168A06888423B
:10E340000FD106206070FFF70EFE002808D120696B
:10E35000E168406800F047F9002801D107216170A9
:10E3600010BD082010BD10B57F484078072801D0A7
:10E37000082010BD7D480068FFF7A4FA002803D0EC
:10E3800000221146FFF716F87648803080688047F3
:10E3900010BD00B587B00620694608710598009049
:10E3A00001A80FC8FFF763FCDBE5F8B51C4617466C
:10E3B0000D46064600F0C1F8002817D001200003E2
:10E3C000854207D92346291B301B1A46FFF7EDFF6C
:10E3D00000280BD13A462946304600F0B9F800280B
:10E3E00004D13A462946304600F0A7F8F8BDF0B50A
:10E3F00089B06846FFF738FD039800282AD001212C
:10E400000903069A4018904226D9501A450810462A
:10E41000039A0C46871802466800161800190790E0
:10E42000032000038068039988420DD261190846D1
:10E43000042200F08DF800280CD121460422084661
:10E4400000F086F8002805D1BA1B2B463046079904
:10E45000FFF7ABFF09B0F0BD039A069800F078F81B
:10E46000F8E700B58BB004A8FFF7FEFC0898002879
:10E470000DD0079800280CD007990A9840180190F1
:10E4800000210898009180080290684618DF0BB0C0
:10E4900000BD0320000380680F218903091A490881
:10E4A000ECE700B58BB004A8FFF7DEFC0898002865
:10E4B000EDD00F210798890300280CD0079A0A98FD
:10E4C000019180180290032208980092800803901E
:10E4D000684618DFDBE70320000380680A1A520849
:10E4E000EEE730B58FB06846FFF7BEFC0398002812
:10E4F00014D001210903069A4018904214D9501AE9
:10E5000043081046039A5C0082180019611803241E
:10E510002403A468039DAC4202D20E200FB030BD8C
:10E52000121AFFF742FFF9E703200BAB07C303986A
:10E5300080080E900BA818DFF0E71FB503230190A9
:10E540009008039000930291684618DF04B010BD54
:10E550001FB5012301909008039000930291684633
:10E5600018DFF3E7B03100206C2C0020E8F1030045
:10E5700070B500250C290ED30446431800894100CC
:10E580000919581A0A38C2B21E48022A027002D368
:10E590000A318B4201D2092070BD1B4800F098FD62
:10E5A0001A481B4902888A4202D02388934218D114
:10E5B0004088884202D06188814212D1144A0323E4
:10E5C000521E20891B03A8420BD9690009194989E9
:10E5D000914204D09E896D1CB6B2B142F3D10020A5
:10E5E00070BD0B2070BD10B50022FFF767FC064A16
:10E5F0005178127809021143884201D00B2010BDD6
:10E60000002010BD942C00203C320020801000100F
:10E61000FFFF000008280CD004DC002807D00628E3
:10E620000FD108E00B280AD00C280AD105E0012000
:10E630007047022070470320704704207047042968
:10E6400001D0062070470520704770B515460A4670
:10E65000032823D0042820D1FC4C002906D0E088D0
:10E66000FB49884219D0132176DF10E0284600F0DC
:10E6700021FC002803D000221146FEF79BFEA06972
:10E68000A8420AD101220321F248FEF70FFB00281D
:10E6900003D000221146FEF78DFE70BD0121104609
:10E6A000FFF7B8FF02460121EEE7F0B50546087A0C
:10E6B0000E4685B081070CD0032211462846FEF78E
:10E6C000F5FA002803D000221146FEF773FE05B0CC
:10E6D000F0BDDE490090143100F0C5FB010011D1FE
:10E6E000DA4C7168009A606900F0F2FC009800F062
:10E6F00015FC010006D120466946143000F01AFCD2
:10E70000010003D0284600F0F7FAE0E7042001906A
:10E710000098800802906069039001A8FFF77AFDD5
:10E7200007000BD0092F10D0606900F0C3FB010077
:10E7300002D0284600F0E0FA3946E3E7307A216952
:10E74000401820616069A061C1E7307A21694118F1
:10E75000216160780028BAD06089401E0004000C56
:10E760006081B4D12846FEF7F8FB002803D00022D0
:10E770001146FEF71FFE20896081A8E710B5002230
:10E780001146FEF717FE10BD10B5B04C01202070E9
:10E79000E088AF49884208D0132176DF002813D0E3
:10E7A00000221146FEF706FE0EE0A07800280BD0EE
:10E7B00074DF002803D000221146FEF7FBFD152070
:10E7C00000F068FA0020A070FEF7E3F9002803D0FB
:10E7D00000221146FEF7EEFD002010BD70B50D7849
:10E7E00004460120994A2B0000F0C0FC0A2B30435C
:10E7F000061320575C466012FFF79AFD0421FFF7CD
:10E8000009FF024604212EE000221146FEF7D2FD48
:10E8100070BDFFF7B9FF002803D000221146FEF7B4
:10E82000C9FDFFF7A0FD002808D170BDFFF7ACFFC0
:10E83000002803D000221146FEF7BCFDFFF7A9FD1A
:10E8400070BD107148680078507170BD0220107161
:10E85000486800780128F8D1FFF710FD0221FFF782
:10E86000D9FE024602212046FEF720FA0028CBD12D
:10E8700070BD0320107170BD12792046012A06D0A8
:10E88000022A07D0032AF6D1FFF70FFF70BD00F070
:10E8900046FA70BD00F080FA70BD50708888108113
:10E8A000508170BD00205070108170BD20461169EC
:10E8B000FEF71CFBDAE710B50446664890B0817994
:10E8C0006846817064490180382101A800F019FC74
:10E8D00002216846017100218171C4710121818189
:10E8E0000490002101A8FDF767FF002803D0002253
:10E8F0001146FEF75FFD10B010BDF0B5534C8BB064
:10E90000A07800283ED153481821183800F0F9FBB0
:10E910002046504CC078183C0025012600283BD0EA
:10E920002746483700950195029510226946F81D43
:10E93000039500F0F1FB002826D0F81D08900997F8
:10E940006846067509A804906846067708A80690E8
:10E950000420FFF7B0FF25700220207204A8E060B9
:10E96000282020823B486582183873DF002803D0B6
:10E9700000221146FEF71EFD012038494005C860FF
:10E98000324886700BB0F0BD0520FFF794FF26706B
:10E99000676025722582E5E70620FFF78CFF25706A
:10E9A00065602572DCE7F0B50546284C0088002735
:10E9B0000122E688A7B0172810D024DC11284FD0F8
:10E9C0000EDC02287ED0102808D124498004C860BB
:10E9D000152000F05FF9A888E080A77027B0F0BD8F
:10E9E0001C4C303427461837132855D01428F5D13D
:10E9F000E889628D0021904200D139460023A88821
:10EA0000E21D82DF1BE0512873D00EDC18286FD086
:10EA10001928E3D1A8790028E0D1A770E068401E4A
:10EA2000E06054D0FFF769FFD8E752287BD0552823
:10EA3000D4D1A8790028D1D11321304676DF00281F
:10EA4000CCD000221146FEF7B5FCC7E7982C002079
:10EA5000FFFF00006032002030150000000500506C
:10EA60008020694688803220E060162000F012F98C
:10EA7000012301AA06A9E088AADF002803D000220A
:10EA80001146FEF797FC2078002801D1FFF735FFEB
:10EA90000020C043E080A1E70722DC4910A800F075
:10EAA00017FB1022E11D0CA800F012FB1C223946B6
:10EAB00012A800F00DFB0CA80A9012A806ABD44ACD
:10EAC000852100E00FE0099030467FDFB7E7142290
:10EAD000D04906A800F0FCFA0A98009006A80FC8D2
:10EAE000FFF7C5F87AE70021304667DFA7E700E0C7
:10EAF00019E0A979002997D0A87A042803D006281C
:10EB000001D0052890D1022909D068460272FF2061
:10EB100083306946888102A93046A8DF8FE702204A
:10EB200069460872F3E700F0BAF888E710B50446C2
:10EB3000FEF763F8B54821463038FEF795F92046D0
:10EB4000FFF731FF10BD10B500221146FEF732FC71
:10EB500010BD30B5AE4D87B000241C3D2C702C711B
:10EB6000152000F091F8162000F08EF8152000F026
:10EB700091F8162000F08EF8A74800F05BFA002804
:10EB80007CD1A648FFF7F4FA00F05EF9002875D1B1
:10EB90009E48FDF717FB002873D0684671DF0028F8
:10EBA00003D000221146FEF705FC69464878401C58
:10EBB0004870002070DF002803D000221146FEF7C5
:10EBC000F9FB112069460872072295A102A87CDF93
:10EBD000002803D000221146FEF7ECFB00940C2124
:10EBE00068460194018018214180FF218480913181
:10EBF000C1807ADF002803D000221146FEF7DAFB3D
:10EC00000820694600940880874801908748029050
:10EC10007E483038FEF7E8F8002803D0002211467D
:10EC2000FEF7C8FB1C21684600F06BFA8048019093
:10EC30000120800302900094032168460173C4817F
:10EC400004747C48069005946846FDF780FF002810
:10EC500003D000221146FEF7ADFB6D49E122087892
:10EC60004008400010400C30DF22104008700720A0
:10EC7000487010208870FFF740FE002007B030BDBC
:10EC8000FFE70120E8709CE76B4A032180008018B1
:10EC9000016070470121814068488160704770B50C
:10ECA0005B4C674D1C3CE088A84201D1082070BD38
:10ECB000E17800291BD05549012308223431A9DF0E
:10ECC0000028F4D1022300221146E088A9DF0028A1
:10ECD000EDD12A460C21E088A7DF5A49884204D0AA
:10ECE000082802D0891C8842E1D1002070BD002391
:10ECF0001A461946A9DF70BD10B50A46044603211D
:10ED00001046FFF787FC024603212046FDF7CEFFA1
:10ED1000002803D000221146FEF74CFB10BD30B591
:10ED2000054687B00020009001900290039038487B
:10ED30006A461C3840791070364A0C3A106892685E
:10ED40000490684606920590087A0C2806D00322A3
:10ED50001BE000221146FEF72DFB8FE74C68204692
:10ED600000F049F80190201D00F045F8029020467F
:10ED7000083000F040F8039004A8FFF7FCF90028E1
:10ED8000EBD00121FFF746FC024601212846FDF7A2
:10ED90008DFF0028DDD171E7FEB50446087A8207B1
:10EDA0000ED08207920F04239B1A0022154604E01E
:10EDB0004E683554401CC0B2521C9A42F8D30872B7
:10EDC0000120009048680290087A80080190684607
:10EDD000FFF76BFA00280DD00221FFF71BFC02465B
:10EDE00002212046FDF762FF002803D000221146D1
:10EDF000FEF7E0FAFEBD10B5044600F09AF90002F5
:10EE0000E178000A0906084310BD00009032002096
:10EE1000B42C002018F203002DEB03004BE6030096
:10EE20004466755461726700DDE7030047EB030039
:10EE3000CD0C00007DE703000007005000050050E6
:10EE4000FFFF0000023000004B48002101704C48D9
:10EE50004A4A02608160C1600161082241614260EA
:10EE600081610846704710B500291DD000220A6054
:10EE7000434A5368002B1BD0202817D85B1E5360D1
:10EE8000D0682423401CD060106914684343E31801
:10EE90000B60012383409169401C19434007400FD8
:10EEA00091611061002010BD0E2010BD0C2010BD1E
:10EEB000042010BDF0B5324A0646916800292BD0D7
:10EEC00057691020791A4907490F14680B46242501
:10EED0004D436519B54206D1012495698C406540C2
:10EEE0000020956104E0491C4907490F8F42EED18B
:10EEF000491C4E07760F956901210C469C402B4614
:10EF000023420AD19368002B07D05B1E936053689D
:10EF10005B1C53603346F0E70420F0BD184A2423FD
:10EF2000117C1268491E4907490F5943203150503E
:10EF30000020704770B500281AD0002918D0104A58
:10EF4000D368002B16D05B1ED360936824265B1C0D
:10EF50009360536915681C467343EE1820330660AE
:10EF6000E858641C08606007400F5061002070BDC5
:10EF70000E2070BD042070BDB92C0020CC320020C2
:10EF8000EC33002010B508461146FDF739F910BDE5
:10EF9000F8B5384C2078002837D02069002807D0F1
:10EFA0000026E068002805D00025002E04D013E0DC
:10EFB0000126F6E70125F8E7684651DF052806D067
:10EFC000002806D000221146FEF7F4F904E00126DD
:10EFD00002E0216900988847002D12D160886946B7
:10EFE0000880A06861DF052806D0002806D000222E
:10EFF0001146FEF7DFF904E0012502E0E168A068B0
:10F000008847002ED8D0002DCFD0F8BD70B500298C
:10F0100001D08C0701D0072070BD164C0125A160DE
:10F0200062801549636010DF0028F5D12570162035
:10F030002EDF70BD002803D00E49C8600020704745
:10F040000E207047002803D00A490861002070474D
:10F050000E20704710B507484068002807D0804749
:10F06000002803D000221146FEF7A4F910BDFFF7D7
:10F070008FFF10BDC02C002085EF030010B50029C4
:10F0800004D0002211461046FEF794F9FFF780FFE6
:10F0900010BD10B50021024A0846FEF7ABF910BDBD
:10F0A0007DF0030030B50B460146002020220124EC
:10F0B00009E00D46D5409D4205D31D469540491BAC
:10F0C0002546954040191546521E002DF1DC30BDF5
:10F0D00003460B439B0703D009E008C9121F08C071
:10F0E000042AFAD203E00B78491C0370401C521E1C
:10F0F000F9D27047D2B201E00270401C491EFBD227
:10F1000070470022F6E710B513460A460446194632
:10F11000FFF7F0FF204610BD30B50446002003463F
:10F1200000E05B1C934203D2E05CCD5C401BF8D056
:10F1300030BD001D0321401E037812021A43491EF0
:10F14000F9D5104670470000064C0125064E05E033
:10F150002046E36807C82B4398471034B442F7D3DE
:10F16000FCF7B2FF2CF203004CF2030030B47446FB
:10F17000641E2578641CAB4200D21D46635D5B00B3
:10F18000E31830BC184702E008C8121F08C1002A63
:10F19000FAD170477047002001E001C1121F002A18
:10F1A000FBD17047020000000000000000000000DA
:10F1B000000000003430002023D1BCEA5F78231522
:10F1C000DEEF121200000000B5DB030000000000BB
:10F1D000000000000200000000000000000000002D
:10F1E000000000000000000080310020040000004A
:10F1F000000000000000000000000000000000000F
:10F20000F9DE030000000000000000000300000021
:10F2100000000000000000000500000000000000E9
:10F220000000000000000000000000004CF203009D
:10F23000002C0020D400000086F1030020F303001E
:10F24000D42C0020340F000096F103000024F400B9
:10F2500000000000000000000000000000000000AE
:10F26000000000000000000000000000000000009E
:10F27000000000000000000000000000000000008E
:10F28000000000000000000000000000000000007E
:10F29000000000000000000000000000000000006E
:10F2A000000000000000000000000000000000005E
:10F2B000000000000000000000000000000000004E
:10F2C000000000000000000000000000000000003E
:10F2D000000000000000000000000000000000002E
:10F2E00000000000000000000000FFFF0000000020
:10F2F00032000000000000000000000000000000DC
:10F3000000000000000000000000000000000000FD
:10F3100000000000000000000000000000000000ED
:020000041000EA
:0410140000C0030015
:040000050003C0C173
:00000001FF
